{
  "contractName": "erc20",
  "abi": [
    {
      "constant": true,
      "inputs": [],
      "name": "creator",
      "outputs": [
        {
          "name": "",
          "type": "address"
        }
      ],
      "payable": false,
      "stateMutability": "view",
      "type": "function",
      "signature": "0x02d05d3f"
    },
    {
      "constant": true,
      "inputs": [
        {
          "name": "",
          "type": "address"
        }
      ],
      "name": "balances",
      "outputs": [
        {
          "name": "",
          "type": "uint256"
        }
      ],
      "payable": false,
      "stateMutability": "view",
      "type": "function",
      "signature": "0x27e235e3"
    },
    {
      "constant": true,
      "inputs": [],
      "name": "_totalSupply",
      "outputs": [
        {
          "name": "",
          "type": "uint256"
        }
      ],
      "payable": false,
      "stateMutability": "view",
      "type": "function",
      "signature": "0x3eaaf86b"
    },
    {
      "constant": true,
      "inputs": [],
      "name": "_tokenName",
      "outputs": [
        {
          "name": "",
          "type": "string"
        }
      ],
      "payable": false,
      "stateMutability": "view",
      "type": "function",
      "signature": "0x9f0c8125"
    },
    {
      "constant": true,
      "inputs": [],
      "name": "_tokenSymbol",
      "outputs": [
        {
          "name": "",
          "type": "string"
        }
      ],
      "payable": false,
      "stateMutability": "view",
      "type": "function",
      "signature": "0xecf35cca"
    },
    {
      "inputs": [],
      "payable": false,
      "stateMutability": "nonpayable",
      "type": "constructor",
      "signature": "constructor"
    },
    {
      "anonymous": false,
      "inputs": [
        {
          "indexed": true,
          "name": "_from",
          "type": "address"
        },
        {
          "indexed": true,
          "name": "_to",
          "type": "address"
        },
        {
          "indexed": false,
          "name": "_value",
          "type": "uint256"
        }
      ],
      "name": "Transfer",
      "type": "event",
      "signature": "0xddf252ad1be2c89b69c2b068fc378daa952ba7f163c4a11628f55a4df523b3ef"
    },
    {
      "anonymous": false,
      "inputs": [
        {
          "indexed": true,
          "name": "_owner",
          "type": "address"
        },
        {
          "indexed": true,
          "name": "_spender",
          "type": "address"
        },
        {
          "indexed": false,
          "name": "_value",
          "type": "uint256"
        }
      ],
      "name": "Approval",
      "type": "event",
      "signature": "0x8c5be1e5ebec7d5bd14f71427d1e84f3dd0314c0f7b2291e5b200ac8c7c3b925"
    },
    {
      "constant": true,
      "inputs": [
        {
          "name": "owner",
          "type": "address"
        }
      ],
      "name": "balanceOf",
      "outputs": [
        {
          "name": "",
          "type": "uint256"
        }
      ],
      "payable": false,
      "stateMutability": "view",
      "type": "function",
      "signature": "0x70a08231"
    },
    {
      "constant": false,
      "inputs": [
        {
          "name": "_spender",
          "type": "address"
        },
        {
          "name": "_amount",
          "type": "uint256"
        }
      ],
      "name": "approve",
      "outputs": [
        {
          "name": "",
          "type": "bool"
        }
      ],
      "payable": false,
      "stateMutability": "nonpayable",
      "type": "function",
      "signature": "0x095ea7b3"
    },
    {
      "constant": true,
      "inputs": [
        {
          "name": "owner",
          "type": "address"
        },
        {
          "name": "spender",
          "type": "address"
        }
      ],
      "name": "allowance",
      "outputs": [
        {
          "name": "",
          "type": "uint256"
        }
      ],
      "payable": false,
      "stateMutability": "view",
      "type": "function",
      "signature": "0xdd62ed3e"
    },
    {
      "constant": false,
      "inputs": [
        {
          "name": "receiver",
          "type": "address"
        },
        {
          "name": "amount",
          "type": "uint256"
        }
      ],
      "name": "transfer",
      "outputs": [
        {
          "name": "",
          "type": "bool"
        }
      ],
      "payable": false,
      "stateMutability": "nonpayable",
      "type": "function",
      "signature": "0xa9059cbb"
    },
    {
      "constant": false,
      "inputs": [
        {
          "name": "sender",
          "type": "address"
        },
        {
          "name": "receiver",
          "type": "address"
        },
        {
          "name": "amount",
          "type": "uint256"
        }
      ],
      "name": "transferFrom",
      "outputs": [
        {
          "name": "",
          "type": "bool"
        }
      ],
      "payable": false,
      "stateMutability": "nonpayable",
      "type": "function",
      "signature": "0x23b872dd"
    },
    {
      "constant": true,
      "inputs": [],
      "name": "totalSupply",
      "outputs": [
        {
          "name": "",
          "type": "uint256"
        }
      ],
      "payable": false,
      "stateMutability": "view",
      "type": "function",
      "signature": "0x18160ddd"
    }
  ],
  "bytecode": "0x608060405234801561001057600080fd5b506040805190810160405280600b81526020017f455243323020546f6b656e0000000000000000000000000000000000000000008152506000908051906020019061005c92919061015f565b506040805190810160405280600481526020017f4552435400000000000000000000000000000000000000000000000000000000815250600190805190602001906100a892919061015f565b5033600260006101000a81548173ffffffffffffffffffffffffffffffffffffffff021916908373ffffffffffffffffffffffffffffffffffffffff160217905550606460038190555060035460056000600260009054906101000a900473ffffffffffffffffffffffffffffffffffffffff1673ffffffffffffffffffffffffffffffffffffffff1673ffffffffffffffffffffffffffffffffffffffff16815260200190815260200160002081905550610204565b828054600181600116156101000203166002900490600052602060002090601f016020900481019282601f106101a057805160ff19168380011785556101ce565b828001600101855582156101ce579182015b828111156101cd5782518255916020019190600101906101b2565b5b5090506101db91906101df565b5090565b61020191905b808211156101fd5760008160009055506001016101e5565b5090565b90565b610aef806102136000396000f3fe6080604052600436106100af576000357c0100000000000000000000000000000000000000000000000000000000900463ffffffff16806302d05d3f146100b4578063095ea7b31461010b57806318160ddd1461017e57806323b872dd146101a957806327e235e31461023c5780633eaaf86b146102a157806370a08231146102cc5780639f0c812514610331578063a9059cbb146103c1578063dd62ed3e14610434578063ecf35cca146104b9575b600080fd5b3480156100c057600080fd5b506100c9610549565b604051808273ffffffffffffffffffffffffffffffffffffffff1673ffffffffffffffffffffffffffffffffffffffff16815260200191505060405180910390f35b34801561011757600080fd5b506101646004803603604081101561012e57600080fd5b81019080803573ffffffffffffffffffffffffffffffffffffffff1690602001909291908035906020019092919050505061056f565b604051808215151515815260200191505060405180910390f35b34801561018a57600080fd5b506101936105f8565b6040518082815260200191505060405180910390f35b3480156101b557600080fd5b50610222600480360360608110156101cc57600080fd5b81019080803573ffffffffffffffffffffffffffffffffffffffff169060200190929190803573ffffffffffffffffffffffffffffffffffffffff16906020019092919080359060200190929190505050610602565b604051808215151515815260200191505060405180910390f35b34801561024857600080fd5b5061028b6004803603602081101561025f57600080fd5b81019080803573ffffffffffffffffffffffffffffffffffffffff169060200190929190505050610791565b6040518082815260200191505060405180910390f35b3480156102ad57600080fd5b506102b66107a9565b6040518082815260200191505060405180910390f35b3480156102d857600080fd5b5061031b600480360360208110156102ef57600080fd5b81019080803573ffffffffffffffffffffffffffffffffffffffff1690602001909291905050506107af565b6040518082815260200191505060405180910390f35b34801561033d57600080fd5b506103466107f8565b6040518080602001828103825283818151815260200191508051906020019080838360005b8381101561038657808201518184015260208101905061036b565b50505050905090810190601f1680156103b35780820380516001836020036101000a031916815260200191505b509250505060405180910390f35b3480156103cd57600080fd5b5061041a600480360360408110156103e457600080fd5b81019080803573ffffffffffffffffffffffffffffffffffffffff16906020019092919080359060200190929190505050610896565b604051808215151515815260200191505060405180910390f35b34801561044057600080fd5b506104a36004803603604081101561045757600080fd5b81019080803573ffffffffffffffffffffffffffffffffffffffff169060200190929190803573ffffffffffffffffffffffffffffffffffffffff16906020019092919050505061099e565b6040518082815260200191505060405180910390f35b3480156104c557600080fd5b506104ce610a25565b6040518080602001828103825283818151815260200191508051906020019080838360005b8381101561050e5780820151818401526020810190506104f3565b50505050905090810190601f16801561053b5780820380516001836020036101000a031916815260200191505b509250505060405180910390f35b600260009054906101000a900473ffffffffffffffffffffffffffffffffffffffff1681565b600081600460003373ffffffffffffffffffffffffffffffffffffffff1673ffffffffffffffffffffffffffffffffffffffff16815260200190815260200160002060008573ffffffffffffffffffffffffffffffffffffffff1673ffffffffffffffffffffffffffffffffffffffff1681526020019081526020016000208190555092915050565b6000600354905090565b6000600460008573ffffffffffffffffffffffffffffffffffffffff1673ffffffffffffffffffffffffffffffffffffffff16815260200190815260200160002060003373ffffffffffffffffffffffffffffffffffffffff1673ffffffffffffffffffffffffffffffffffffffff16815260200190815260200160002054821115151561068f57600080fd5b60008211151561069e57600080fd5b81600560008673ffffffffffffffffffffffffffffffffffffffff1673ffffffffffffffffffffffffffffffffffffffff16815260200190815260200160002054101515156106ec57600080fd5b81600560008673ffffffffffffffffffffffffffffffffffffffff1673ffffffffffffffffffffffffffffffffffffffff1681526020019081526020016000206000828254039250508190555081600560008573ffffffffffffffffffffffffffffffffffffffff1673ffffffffffffffffffffffffffffffffffffffff16815260200190815260200160002060008282540192505081905550600190509392505050565b60056020528060005260406000206000915090505481565b60035481565b6000600560008373ffffffffffffffffffffffffffffffffffffffff1673ffffffffffffffffffffffffffffffffffffffff168152602001908152602001600020549050919050565b60008054600181600116156101000203166002900480601f01602080910402602001604051908101604052809291908181526020018280546001816001161561010002031660029004801561088e5780601f106108635761010080835404028352916020019161088e565b820191906000526020600020905b81548152906001019060200180831161087157829003601f168201915b505050505081565b6000803390506000831115156108ab57600080fd5b82600560008373ffffffffffffffffffffffffffffffffffffffff1673ffffffffffffffffffffffffffffffffffffffff16815260200190815260200160002054101515156108f957600080fd5b82600560008373ffffffffffffffffffffffffffffffffffffffff1673ffffffffffffffffffffffffffffffffffffffff1681526020019081526020016000206000828254039250508190555082600560008673ffffffffffffffffffffffffffffffffffffffff1673ffffffffffffffffffffffffffffffffffffffff16815260200190815260200160002060008282540192505081905550600191505092915050565b6000600460008473ffffffffffffffffffffffffffffffffffffffff1673ffffffffffffffffffffffffffffffffffffffff16815260200190815260200160002060008373ffffffffffffffffffffffffffffffffffffffff1673ffffffffffffffffffffffffffffffffffffffff16815260200190815260200160002054905092915050565b60018054600181600116156101000203166002900480601f016020809104026020016040519081016040528092919081815260200182805460018160011615610100020316600290048015610abb5780601f10610a9057610100808354040283529160200191610abb565b820191906000526020600020905b815481529060010190602001808311610a9e57829003601f168201915b50505050508156fea165627a7a72305820b1bb3be6238535fa9069247244dd3cc16c709c9c664cd425cd23b26b3d646dfa0029",
  "source": "pragma solidity ^0.5.0;\n\ncontract erc20{\n\n    string public _tokenName;\n    string public _tokenSymbol;\n    address public creator; //address of contract creator to be defined\n    uint256 public _totalSupply; //total coin supply\n    mapping (address => mapping (address => uint256)) private _allowed; //allowance\n    mapping (address => uint256) public balances; //like a dictionary, an address represents\n                                                  // a positive integer\n    // new variables can't be created\n    //the above ones are created during contract creation\n\n    //below is the constructor function called only when the contract is created\n    constructor() public{\n        _tokenName = \"ERC20 Token\"; //sets the name of the token\n        _tokenSymbol = \"ERCT\"; //ticker symbol of the token\n        creator = msg.sender; //the creator of the contract\n        //msg.sender is automatically generated on contract deploy\n        _totalSupply = 100; //sets the total supply\n        balances[creator] = _totalSupply; //gives all the supply to the contract creator\n    }\n\n    event Transfer(address indexed _from, address indexed _to, uint256 _value);\n    event Approval(address indexed _owner, address indexed _spender, uint256 _value);\n\n    function balanceOf(address owner) public view returns(uint256){\n        return balances[owner];\n    }\n    \n    function approve(address _spender, uint _amount) public returns(bool){\n        _allowed[msg.sender][_spender]=_amount;\n    }\n\n    function allowance(address owner, address spender) public view returns (uint256){\n        return _allowed[owner][spender]; //adds to the allowance mapping\n    }\n\n    function transfer(address receiver, uint256 amount) \n        public returns(bool){\n            address owner = msg.sender; //this is the caller of the function\n            \n            require(amount > 0); //the caller has to have a balance of more than zero tokens\n            require(balances[owner] >= amount); //the balance must be bigger than the transaction amount\n            \n            balances[owner] -= amount; //deduct from the balance of the sender first\n            balances[receiver] += amount; //add to the balance of the receiver after\n            return true;\n    }\n         \n    function transferFrom(address sender, address receiver, uint256 amount) public returns(bool){\n            require(amount <= _allowed[sender][msg.sender]); //requires that the caller of the function has the permission to send this value from the sender of the amount\n            \n            require(amount > 0); //the caller has to have a balance of more than zero tokens\n            require(balances[sender] >= amount); //the balance must be bigger than the transaction amount\n            \n            balances[sender] -= amount; //deduct from the balance of the sender first\n            balances[receiver] += amount; //add to the balance of the receiver after\n            return true;\n    }\n\n    function totalSupply() public view returns (uint256) {\n        return _totalSupply;\n    }\n\n}\n   \n\n\n    \n\n",
  "sourcePath": "/Users/igormarcos/Documents/DEX/Class 11/contracts/erc20.sol",
  "compiler": {
    "name": "solc",
    "version": "0.5.0+commit.1d4f565a.Emscripten.clang"
  },
  "schemaVersion": "3.0.1",
  "updatedAt": "2019-02-13T18:43:03.590Z",
  "devdoc": {
    "methods": {}
  },
  "userdoc": {
    "methods": {}
  }
}